:020000040800F2
:10000000000002204D2D0008812D0008812D0008E0
:10001000812D0008812D0008812D000800000000BE
:10002000000000000000000000000000812D00081A
:10003000812D000800000000812D0008812D00089E
:10004000812D0008812D0008812D0008812D0008D8
:10005000812D0008812D0008812D0008812D0008C8
:10006000812D0008812D0008812D0008812D0008B8
:10007000812D0008812D0008812D0008812D0008A8
:10008000812D0008812D0008812D000851140008E1
:1000900055140008812D000845140008812D000822
:1000A000812D0008812D0008812D0008812D000878
:1000B000812D0008812D0008812D0008812D000868
:1000C000812D0008812D0008812D0008812D000858
:1000D000812D0008812D0008812D0008812D000848
:1000E000812D0008812D0008812D0008812D000838
:1000F000812D0008812D0008812D0008812D000828
:10010000812D0008812D0008812D0008812D000817
:10011000812D0008812D0008812D0008812D000807
:10012000812D0008812D0008812D0008812D0008F7
:10013000812D000800000000000000006514000888
:1001400069140008812D000859140008812D000849
:10015000812D0008812D0008812D0008812D0008C7
:10016000812D0008812D0008812D0008812D0008B7
:10017000812D0008812D0008812D0008000000005D
:1001800000000000812D00080000000000000000B9
:10019000812D00080000000000000000812D0008F3
:1001A000000000000000000000000000812D000899
:1001B000812D0008812D0008812D0008812D000867
:1001C000812D000810B5054C237833B9044B13B1C9
:1001D0000448AFF300800123237010BD900B002072
:1001E000000000005CED000808B5034B1BB103499B
:1001F0000348AFF3008008BD00000000940B00200E
:100200005CED0008154B002B08BF134B9D46A3F572
:10021000803A00218B460F461348144A121A05F003
:10022000E5FF0F4B002B00D098470E4B002B00D062
:1002300098470020002104000D000D48002802D03E
:100240000C4801F0A2FF05F0C1FD2000290002F0DA
:10025000AFF801F097FF00BF000008000000022087
:1002600000000000A1230008900B002018160020B9
:100270008B2100080000000038B504460D4631B15E
:1002800001290CD0BDE838400A4806F015B800F046
:1002900045FA2946204600F051FA256138BD036829
:1002A00005495B699847236803499B69204698473D
:1002B000F3E700BFCCDA00080000B44310B5034BED
:1002C0000360044600F018F8204610BDECDA000880
:1002D00010B50446FFF7F2FF2046202104F030FF5E
:1002E000204610BD10B5044600F09EF9014B236076
:1002F000204610BDECDA00087047C0687047816185
:100300007047C16170474161704710B520210446B4
:1003100004F016FF204610BD30B585B004460D46EA
:100320008DF80C100A46C168074805F0C5FF002388
:10033000019303AB0093E16860680123032200F09E
:10034000D5FCE56005B030BD48DB000807EE101AAB
:10035000F2EE007A67EE277A1FB5FCEEE77A1C22F0
:1003600017EE903A8DF80C300023019303AB009305
:10037000C1684068012300F0B9FC05B05DF804FBDA
:100380009FED0E7A07EE901AC7EE877A1FB51B22F3
:100390009FED0B7A67EE877AFCEEE77A17EE903ADC
:1003A0008DF80C300023019303AB0093C1684068C3
:1003B000012300F09BFC05B05DF804FB00007A44CB
:1003C0000000004507EE101AF5EE007A67EE277A76
:1003D0009FED0B7A67EE877A1FB5FCEEE77A1A225B
:1003E00017EE903A8DF80C300023019303AB009385
:1003F000C1684068012300F079FC05B05DF804FB9A
:1004000000007A4407EE101ADFED0B7A67EE277AC8
:100410001FB5FDEEE77A222217EE903AADF80C30C8
:100420000023019303AB0093C1684068022300F0EE
:100430005DFC05B05DF804FB00C07F441FB50023E0
:10044000019303AB00938DF80C100123C168406841
:10045000182200F04BFC05B05DF804FB1FB5044604
:10046000C1680B4805F028FF03ABE16800932A221E
:100470000123606800F0AAFB9DF80C000BF0C4FF9C
:10048000044B00220CF054F90CF000FB04B010BD3A
:1004900066DB0008000024401FB50446C1680C4814
:1004A00005F00AFF03ABE168009344220123606872
:1004B00000F08CFB9DF80C00A0F500600BF0A4FF91
:1004C000044B00220CF00AF80CF0E0FA04B010BD66
:1004D00074DB0008000012401FB503AB0093C16835
:1004E000406801231C2200F071FB9DF80C0007EE10
:1004F000900AFBEEEE7A17EE900A05B05DF804FB69
:100500001FB503AB0093C168406801231B2200F0B4
:100510005DFB9DF80C309FED087A07EE903AF8EEFF
:10052000677A67EE877A9FED057A67EE877A17EE2E
:10053000900A05B05DF804FB00007A440000003A20
:100540001FB503AB0093C168406801231A2200F075
:100550003DFB9DF80C3007EE903AF8EE677AB1EE6D
:10056000007A67EE877A9FED047AC7EE877A17EEF6
:10057000900A05B05DF804FB00007A44000000001A
:100580001FB50446C168144805F096FE03ABE16848
:10059000009324226068022300F018FB9DF80D30C0
:1005A0009DF80C0000EB032000B207EE900AF8EE75
:1005B000E77A17EE900A0BF039FF05A3D3E9002381
:1005C0000BF08CFF0CF062FA04B010BDAFF30080AA
:1005D000BA490C022B87B63F84DB00081FB503AB7A
:1005E0000093C168406801232E2200F0EFFA9DF8C5
:1005F0000C00003818BF012005B05DF804FB1FB5E2
:1006000003AB0093C168406801232B2200F0DEFA9F
:100610009DF80C0007EE900AF8EE677A17EE900A44
:1006200005B05DF804FB000030B58360044D054B58
:1006300043610023C0E90051C2608361C36130BDE2
:10064000D0DB00080000B4437FB5036907EE901AC1
:1006500004468BB9F5EEC07AF1EE10FA06D49FEDA0
:100660002C7AF4EEC77AF1EE10FA07DD294805F08E
:1006700023FE012004B070BD012BF7D094ED067A63
:10068000931E5D42F4EEC77A5D41F1EE10FA04DD8F
:10069000B5EE407AF1EE10FA31D194ED077AF4EE2E
:1006A000C77AF1EE10FA06D5B5EE407AF1EE10FAFF
:1006B00018BFF0EE477A94ED027A67EE877A17EE6C
:1006C000900A0BF0B3FE10A3D3E900230CF030F82E
:1006D0000CF0B4F981B206460F4805F0EDFD03AB0E
:1006E0000093E1686068019502231E22ADF80C605A
:1006F00000F0FCFA236820461B6C9847FAE7F0EEFE
:10070000477AD8E7AFF300808E3BA583F57FB63FED
:100710000000B44395DB0008A8DB00081FB50023E8
:10072000019303AB0093ADF80C100223C16840683D
:10073000062200F0DBFA05B05DF804FB1FB50023CC
:10074000019303AB0093ADF80C100223C16840681D
:10075000082200F0CBFA05B05DF804FB012938B59A
:1007600005460C460AD002290FD0A9B9FFF7D6FFDB
:1007700021462846FFF7E2FF2C6138BD4FF47A612D
:10078000FFF7CCFF4FF47A61F3E740F6FF71FFF714
:10079000C5FF40F6FF71ECE7BDE83840014805F0C1
:1007A0008BBD00BFB9DB000810B5D0ED027ADFEDDC
:1007B000206A2DED028B08EE101A68EE277A84B0BD
:1007C000F0EEE77A87EEA67A0446DFED1A7A67EE56
:1007D000277A17EE900A0BF029FE13A3D3E9002322
:1007E0000BF0A6FF0CF02AF940F2FF339842B5EE69
:1007F000C08AA8BF1846F1EE10FA4FF0000348BFB8
:1008000040F48060019303ABADF80C000093E16805
:1008100060680223202200F069FA04B0BDEC028B6C
:1008200010BD00BFAFF30080C976BE9F1A2FBD3F39
:100830000000B4430000704238B5036804461B69E9
:100840000D460221984761692046FFF7ADFF294612
:1008500020460022BDE83840FFF7F6BE38B50368F1
:1008600004460D461B690021984729462046BDE8ED
:100870003840FFF799BF000010B5034B03600446F2
:10088000FFF73AFD204610BD34DC000810B50446E1
:10089000FFF7F2FF2046202104F052FC204610BD55
:1008A00010B50446FFF7C0FE014B2360204610BD83
:1008B00034DC000803681B69184703689B69184704
:1008C00003689B6A18474FF0FF307047112070474C
:1008D000704737B50446019172B6B0F9D60002F000
:1008E000FFF80199204604F016F804F1BC0004F06A
:1008F00005FB00210546B4F9D60001F07DFD62B686
:10090000284603B030BDA0F1BC00FFF7E2BF03F002
:10091000FCBFA0F1BC00FFF7FABF000070B58AB0C1
:100920004FF41656009604460D4603F0FBFF114B9C
:10093000A4F8D65003F10802226003F128028433A0
:10094000C4F8C030C4F8BC2000211C2203A805F064
:100950004DFC294603A804F0E0F8B4F9D6000021C4
:1009600001F0E2FDB4F9D600002101F045FD20467A
:100970000AB070BD90DC0008C36810B504460BB126
:100980009B689847204610BD10B504460C4B40F8B4
:10099000A83BD4F8B4300BB19B689847D4F8A43086
:1009A00004F198000BB19B68984704F13800FFF7F9
:1009B000E3FF04F12800FFF7DFFF204610BD00BF72
:1009C0002CE8000810B50446FFF7DEFF2046BC21E6
:1009D00004F0B6FB204610BD10B5094B036003F1CF
:1009E00020027C330446C0F8BC20C0F8C030BC30C4
:1009F00004F05EFA2046FFF7C7FF204610BD00BF97
:100A0000A0E70008A0F1BC00E6E7A0F1C000E3E722
:100A100010B50446FFF7E0FF2046D82104F090FB14
:100A2000204610BDA0F1C000F2E7A0F1BC00EFE746
:100A300010B5084B03F10802026003F12802843369
:100A40000446C0F8BC20C0F8C030FFF7C5FF204600
:100A500010BD00BF90DC0008A0F1BC00E8E7A0F1E9
:100A6000C000E5E710B50446FFF7E2FF2046D821B5
:100A700004F066FB204610BDA0F1BC00F2E7A0F137
:100A8000C000EFE700000000D0B52DED048BD0EDE5
:100A9000068A044618EE900A08EE101A0BF0C6FCFF
:100AA00002460B460BF064FB064618EE100A0F4692
:100AB0000BF0BCFC264B00220BF058FB02460B4609
:100AC000304639460BF00AFD0BF0E0FF07EE900AC6
:100AD000B1EE689AB4EEE79AF1EE10FA08DCF4EEA3
:100AE000E78AF1EE10FA54BFB0EE679AB0EE689A5A
:100AF00004F01CFA19EE100A0BF098FC12A3D3E9CB
:100B000000230BF035FB0BF0C1FF0146204601F03E
:100B100087FF04F037FAB5EEC08AF1EE10FA0DD473
:100B2000F7EE007AB4EE678AF1EE10FAC8BFB0EEC5
:100B3000678A84ED088ABDEC048BD0BD9FED058AE1
:100B4000F7E700BFAFF30080FA7E6ABC7493583FAA
:100B50000000E03F0000000007B5CDE9001004F000
:100B6000E5F9DDE90010009001F040FE04F00AFA1A
:100B70000098064B8361064BC3614FF07C51FFF731
:100B800083FF009803B05DF804FB00BF6F12033AC7
:100B90000000344210B50446FFF776FF204610BD32
:100BA00010B5096A0446FFF76FFF204610BD006AC2
:100BB000704738B504461D460023FFF7AFFE2046B8
:100BC000294603F0FDFE204638BD00002DE9F04324
:100BD00089B01C46FE238DF814304FF6FF730E4685
:100BE000ADF80030CBB204218DF8031002218DF84E
:100BF0000410E1B2D2B28DF8061006318DF805204E
:100C00000A448DF802301344DB43109D8DF8073001
:100C1000E946002700F1BC0819F8011B40460137DE
:100C200004F058F9082FF7D1284804F0EBF9FE2E0C
:100C300046D00026053404AFB4420DDA9DF81340C7
:100C40000DF11506A71E324600239F420ADD12F859
:100C5000011BE9540133F8E7404604F04FF9B85559
:100C60000136E9E71A48DFF8808005F0C1FB9DF8FE
:100C70001010184805F020FB9DF81110154805F0DC
:100C80001BFB9DF81210144805F016FB2146134873
:100C900005F012FB9DF81410114805F00DFB00251E
:100CA000AF4206DD16F8011B404605F005FB013595
:100CB000F6E708AB1C440B4814F80D1C05F0FCFAD1
:100CC0009DF8140009B0BDE8F08300BFACC5A7379C
:100CD0001CDD00082BDD00083CDD000849DD0008B4
:100CE0005ADD00087EDD00086FDD00087FB54FF695
:100CF000FF75ADF80050DD1CEDB2C9B28DF80210E1
:100D00008DF803502944099D089C012DC9B20CBFE0
:100D100004310331D2B20CBFC9B2C9B211440CBF05
:100D2000042503258DF805208DF80450C9B20DF176
:100D3000060600229A4206DAA55C06F8015B294401
:100D4000C9B20132F6E79C1D04AB2344C94303F842
:100D5000101C002500F1BC06AC4206DB1DF8051096
:100D6000304604F0B7F80135F6E7034804F04AF9D5
:100D7000002004B070BD00BFACC5A7377FB50A4BDB
:100D800000934FF60433ADF804306E46002400F1B2
:100D9000BC0516F8011B2846013404F09BF8062C0C
:100DA000F7D104B070BD00BFFFFFFE0270470368BB
:100DB00018470B6803607047704710B5102204464F
:100DC000002105F013FA0823A3810023A3736360B5
:100DD000A360204610BD000038B5204D204B2148AF
:100DE0001A68294603F032FCC0B16B7929791E4C90
:100DF0001E4801EB0321AB7901EB0341EB7901EBD9
:100E00000361216005F058FA2968194805F054FA81
:100E10002B78402B03D1174B22681A6038BD502B1A
:100E200003D1144B22685A60F8E7602B03D1114BB1
:100E300022689A60F2E7702B03D10E4B2268DA60C9
:100E4000ECE7802B03D10B4B22681A61E6E7902B6D
:100E500002BF084B22685A61E0E700BF1C0D00206A
:100E6000FC0C0020440C0020CC01002091DD000887
:100E7000A0DD0008E40C0020C36810B504460BB1E7
:100E80009B689847204610BD8FB5B548B54C05F016
:100E900013FAB54BB5489A681B681360FFF76EFFED
:100EA000B248FFF76BFFB148FFF768FFAF48FFF7A5
:100EB00065FFAF4804F0A6F8AE480121FFF7BEFA7F
:100EC0000021AC48FFF74AFCA94804F09BF8AA4867
:100ED00005F0F2F9A9480121FFF7B0FA0021A7486F
:100EE000FFF73CFCA24804F08DF8A54805F0E4F9B2
:100EF000A4480121FFF7A2FA0021A248FFF72EFC27
:100F00009B4804F07FF8A04805F0D6F9984804F013
:100F100079F89E4805F0D0F99D4B9E4800936946AC
:100F20009D4B039303F0A2FC6846FFF7A5FF002149
:100F30009A48FFF72FFE00219948FFF72BFE9948AA
:100F400005F0BAF9984805F0B7F983A7D7E9006723
:100F50002546FFF741FF236873B994498548FFF799
:100F60007DFC8448FFF70CFB0BF060FA02469048CA
:100F70000B4605F0A1F9ECE7322B01D10021EDE79A
:100F8000642B01D18B49E9E76368F3B987497B4852
:100F9000FFF764FC7948FFF7F3FA0BF047FA0246D3
:100FA0000B46854805F088F97448FFF7E9FADFED4C
:100FB000837A07EE100AB4EEE77AF1EE10FAC8D59C
:100FC0006E480021FFF74AFCC3E7322B0CD1002109
:100FD0006A48FFF743FC6948FFF7D2FA0BF026FA9C
:100FE00002460B467448C4E7642B1AD17149634822
:100FF000FFF734FC6148FFF7C3FA0BF017FA02461B
:101000000B466D4805F058F95C48FFF7B9FADFED7B
:101010006C7A07EE100AB4EEE77AF1EE10FA98DD7A
:10102000CEE7A36863B961495648FFF717FC5548F6
:10103000FFF7A6FA0BF0FAF902460B46614898E76B
:10104000322B01D10021EFE7642B01D15949EBE7A5
:10105000E3682BB955495C48FFF700FC5A4806E0A5
:10106000322B0CD158480021FFF7F8FB4148FFF71D
:1010700087FA0BF0DBF902460B46544879E7642BFC
:1010800001D14C49E7E72B690BBB4448FFF78FFDC3
:1010900007EE900AF5EE407AF1EE10FA04D13F49DE
:1010A0000846FFF77DFD0EE03C48FFF780FD0BF0A2
:1010B000BDF932463B460BF059F80BF0E7FC014610
:1010C0003648FFF767FD424803F09CFF41E7642B79
:1010D00015D13248FFF76BFD07EE100AF7EE007AE4
:1010E000B4EE677AF1EE10FAD9D02C48FFF75FFD25
:1010F0000BF09CF932463B460BF03AF8DDE76B69A2
:10110000BBB92748FFF753FD07EE900AF5EE407A8A
:10111000F1EE10FAC3D02248FFF749FD0BF086F933
:1011200032463B460BF022F80BF0B0FC01461C485F
:10113000C7E7642B7FF40DAF1948FFF738FD07EEC2
:10114000100AF7EE007AB4EE677AF1EE10FA41D1A8
:101150001349A5E7AFF300809A9999999999C93FE6
:10116000AFDD0008E40C0020000D0020BC0D0020C5
:101170000000A0403C0D0020C2DD00085C0D0020F6
:10118000DBDD00087C0D0020F4DD00080DDE00082A
:10119000AD0D0008AC0B0020B8DE0008FC0B0020F1
:1011A000200C002024DE000835DE00080000C8C244
:1011B00040DE00080000C8425EDE00080000B4C245
:1011C0000000B4427CDE00089C0D00209ADE00087E
:1011D000CDCC4C3E0448FFF7EAFC0BF027F9324631
:1011E0003B460AF0C5FF9FE7200C002010B50446DF
:1011F000FFF71EFC204610BDF7B53D4D3D4C3E4F60
:101200003E4E2D21284603F0E7FA22463C49284667
:1012100000F0B6FF3B4B3C4D1C221846002104F069
:10122000E5FF052103F08CFC4FF461430A220921FC
:101230002846FFF7BEFC22463449284600F0A0FFAE
:101240004FF07E53294601223846FFF729FB3846E6
:101250002F4F2246314600F093FF4FF07E53294630
:1012600002223846FFF71CFB38462A4F22463146F9
:1012700000F086FF4FF07E53294603223846FFF7E1
:101280000FFB3146244E2246384600F079FF4FF0DE
:101290007E53294604223046FFF724F822461F4990
:1012A0001F4D304600F06CFF27211E48FFF754FC0D
:1012B00016211D48FFF750FC0C220B21284603F095
:1012C0002FFA22461949284600F05AFF1848FFF71E
:1012D00074FD1848FFF771FD0023009319464FF481
:1012E0008062284603F0C7F9134B186003B0F0BDC5
:1012F000AC0B0020C80100203C0D0020790800083C
:101300009D470008000D0020BC0D0020ED110008D5
:101310005C0D00207C0D00209C0D0020BD0200080B
:10132000440C0020FC0B0020200C0020B1460008DB
:101330001C0D00202C0D0020FC0C002043692DE921
:10134000F0413A4C0D46D90720602CD58168DFF872
:10135000E8E08268364F8368364E01EA0E01714537
:1013600002EA070204BF4FF0010EC0F808E0BA42DB
:1013700003EA060304BF4FF480778760B34204BFDB
:101380004FF4803686602C48814205D028498A4235
:1013900002D0284A934206D1284B294A1B6852F8AA
:1013A0002500012198472368DA685B69920708D015
:1013B0009F0706D5214B224A1B6852F825000021C1
:1013C0009847236899695A695B698E070AD5900521
:1013D00008D5190406D5194B194A1B6852F825007F
:1013E00005219847226897695669526917F00407E2
:1013F00006F4806609D046B1120406D50F4B104A98
:101400001B6852F825000721984723685B695FB184
:1014100056B11B0408D5094B094A1B6852F8250030
:101420000221BDE8F0411847BDE8F081940E00208C
:10143000000300080000031003000004E00E002079
:10144000D80E002000210148FFF778BF006400405B
:10145000FFF7F8BFFFF7F6BF01210148FFF76EBFA6
:1014600000680040FFF7F8BFFFF7F6BF034B1960B5
:101470004168034B43F82120704700BFE00E002075
:10148000D80E00200268536923F4064323F01303A7
:1014900053614268024B002143F82210704700BF9D
:1014A000D80E00200368104A93420DD10F4B1A6AE0
:1014B00042F000721A621A6A22F000721A621A6C02
:1014C00022F000721A647047094A9342FBD1074B1D
:1014D0001A6A42F080621A621A6A22F080621A6204
:1014E0001A6C22F08062EDE7006400400038024090
:1014F00000680040F8B50C46054601F083FE18234D
:10150000B0FBF4F01921B0FBF3F386089BB2B342B1
:1015100001D30020F8BD01339BB2DF4303FB01126E
:10152000162490421FD0013C3A44FAD1EFE701F073
:1015300049FCC01B022831D91F4803F041FDE8E7F0
:1015400001F040FC001B022804D87368DB07F7D4C5
:101550000120F8BDB169B2691848002392B2090CA4
:1015600003F02EFDD5E7164901EBC40251F83440D3
:101570005268C3F30903120502F4E00243F08073DA
:101580002404134304F470241C43C2D02E6833682F
:1015900043F00103336001F015FC0746756815F050
:1015A0000105C4D0F461336823F00103336001F016
:1015B00009FC0446C9E700BF70E100088AE10008A1
:1015C00040E2000830B50468E06810F003003AD04B
:1015D0001301E018D0F8B051C5F380054D739DBBE1
:1015E000D0F8B0516D0D0D60D0F8B051D0F8B40105
:1015F000234400F00F000873D3F8B8010871D3F842
:10160000B801000A4871D3F8B801000C8871D3F80A
:10161000B801000EC871D3F8BC010872D3F8BC0140
:10162000000A4872D3F8BC01000C8872D3F8BC31B0
:10163000C5F340051B0E8D73CB724AB9E36843F0C6
:101640002003E360012030BDD0F8B051ED08CAE7B7
:10165000236943F020032361F4E7000030B58BB029
:10166000012B0E9C2BD805681648059405600020B8
:101670000690012007909BB949018DE80A005201AC
:10168000029203930023049301230893694604F113
:101690000E030C48099301F09BFB20460BB030BDB4
:1016A0004B0B0093C900530BD200C9B2D2B241F028
:1016B000040142F00402019102930392E2E7002048
:1016C000ECE700BF940E00202DE9F0410E4686B0F5
:1016D00004464549304615461F4603F071FA434912
:1016E0008046284603F06CFA0146404603F04AFA69
:1016F0002060013004D12B223D493E4803F038FBE5
:1017000023683D4A934253D13C4B002103911A6C0C
:1017100042F000721A641B6C616003F00073039363
:10172000039B3149304603F00FFA3049284603F055
:101730000BFA721C03D00121304600F0F5FE6B1C41
:1017400003D00121284600F0EFFE2D4823680360F6
:1017500000238361C361036243628362C362836067
:10176000C3604FF4A02303614FF4E00343610223FD
:10177000436001F0AEFB10B1224803F021FC394672
:101780002046FFF7B7FE012802D01F4803F018FCDF
:10179000194A2368934214BF0E23002300930023A9
:1017A0001A4619462046FFF759FF06B0BDE8F081FA
:1017B000164A9342F9D1114B002104911A6C42F060
:1017C00000721A641A6C02F000720492049A059175
:1017D0001A6C42F080621A641B6C03F080630593FC
:1017E000059B012363609CE7C4DE000800DF00085E
:1017F000B3E10008F5E10008006400400038024051
:10180000940E002009E200081FE200080068004072
:10181000014BFFF759BF00BFA086010000B50023B0
:1018200089B007286FD8DFE800F00413202D3A476D
:1018300054610093364B37481A6B42F001021A6329
:101840001B6B03F001030093009B09B05DF804FBE0
:1018500001932F4B30481A6B42F002021A631B6B44
:1018600003F002030193019BEFE70293284B2B48FF
:101870001A6B42F004021A631B6B03F00403029319
:10188000029BE2E70393224B25481A6B42F00802C1
:101890001A631B6B03F008030393039BD5E70493C0
:1018A0001B4B20481A6B42F010021A631B6B03F0AB
:1018B00010030493049BC8E70593154B1A481A6B51
:1018C00042F020021A631B6B03F020030593059B73
:1018D000BBE706930E4B15481A6B42F040021A63A1
:1018E0001B6B03F040030693069BAEE70793084B80
:1018F0000F481A6B42F080021A631B6B03F08003DF
:101900000793079BA1E70B4803F05AFB00209CE7D5
:10191000003802400000024000040240000802407B
:10192000000C024000100240001402400018024067
:10193000001C0240F8E20008431C10B5044604D124
:1019400074220649064803F013FA2046002100F0ED
:1019500053FD04F00F040120A04010BD19E300085E
:101960005CE3000870B504464B1C0E46218216D07D
:10197000C1F30310FFF752FF05463046FFF7DCFFC7
:10198000238A074A656103F00F03206052F8233071
:10199000A36105F1100318356360A560E56070BDB3
:1019A000F4E40008B0F9100000F0BEBD10B5836982
:1019B000446971B9216893FAA3F2B2FA82F2032062
:1019C000520000FA02F221EA020293FAA3F3226023
:1019D00010BD226893FAA3F1B1FA81F193FAA3F34F
:1019E0000320490000FA01F1B3FA83F322EA01026D
:1019F0005B00012101FA03F31343236010BD0000D3
:101A00004C22F0B54243184EDFF868C0131D334432
:101A1000074600244FF0010E16448C4205D139468A
:101A20001248BDE8F04003F0CBBA32680EFA04F574
:101A3000154216D01A6BDCF814000EFA02F20242BC
:101A40000FD09D69CCF81420186850B12B691A4248
:101A5000074B08BF02211B6818BF0121BDE8F040F9
:101A6000184701340433D8E7E40E002096E3000859
:101A7000F8100020003C014006210846FFF7C0BFD7
:101A800005210846FFF7BCBF01210420FFF7B8BFBE
:101A900001210320FFF7B4BF01210220FFF7B0BFEF
:101AA00001210846FFF7ACBF01210020FFF7A8BFC6
:101AB000012910B518D11B4C838952B1A26803F0DB
:101AC0000F0399401143A160836843F001038360D1
:101AD00010BDA26803F00F03994022EA0101A16042
:101AE000836823F00103F2E70229F1D10D498389CC
:101AF0005AB1CC6803F00F03012202FA03F3234327
:101B0000CB60836843F00203E1E7CA6803F00F0388
:101B1000012404FA03F322EA0303CB60836823F071
:101B20000203D4E7003C0140B0F90C3099B270B523
:101B300001F00F0606F00C0404F1804404F59C3417
:101B400001F00301A56889000F228A40C3F3031343
:101B500025EA02058B402B43A3600F4B0122196835
:101B6000B240114319608468E50742BF9968114388
:101B70009960A10742BFD9680A43DA6090F9003042
:101B8000002B08DB5909012203F01F0302FA03F3BB
:101B9000024A42F8213070BD003C014000E100E003
:101BA0002DE9F04F92464A1C85B080460C4666D01F
:101BB00000220392334A344F516C41F48041516406
:101BC000526C02F480420392039A04F00F090C2233
:101BD00002FB0972C4F303105568062D47D8DFE8ED
:101BE00005F0043A3C3E40424400284E0193FFF782
:101BF00015FE0C2101FB09F17A1857F801E0244F7A
:101C0000A8F80C404C21694301247B5892F9082024
:101C1000C8F8045004FA0EF44FF0000B1C4388F887
:101C20000020C8F808B07C50132101FB05E507EB44
:101C30008501019B4B60174BC861C3F800A0164B90
:101C4000C1F834909B681032404643F82260FFF799
:101C50006BFF584610E0114EC8E7114EC6E7114E13
:101C6000C4E7114EC2E7114EC0E7114EBEE711485E
:101C700003F0A6F94FF0FF3005B0BDE8F08F08463D
:101C8000FAE700BF00380240C0E30008A91A0008C4
:101C9000E40E0020F810002000ED00E0A11A00087A
:101CA000991A0008911A0008891A0008811A000878
:101CB000791A00086FE300088389184A03F00F03BC
:101CC000012110B501FA03F39468DB431C409460D2
:101CD000D4681C40D46014682340136090F900302D
:101CE000002B0CDB5A0903F01F0301FA03F3203227
:101CF0000B4941F82230BFF34F8FBFF36F8F90F93C
:101D00000030002B09DB5A09012103F01F0301FAFF
:101D100003F36032024941F8223010BD003C01401B
:101D200000E100E0838903F00F020C235343104AC3
:101D300070B54468D658FFF7BFFF4C210D4A614388
:101D4000012000FA06F55058132303FB046320EA30
:101D50000500505002EB830000214160981D0C33B8
:101D600002EB800002EB83034160596070BD00BF4D
:101D7000C0E30008E40E002070B5134C23681A6914
:101D8000950707D5DA68900704D56FF002021A614B
:101D900002F042FF23681A69510713D5DA68520727
:101DA00010D56FF00402094E1A615D6A3368EB1AB0
:101DB000B3F57A7F06D300F0FDFF236805F57A724C
:101DC0009A63356070BD00BFB4150020FC10002080
:101DD00030B589B001A903A801F044FA01F012FA64
:101DE00000230293254B01901A6C254C42F0080207
:101DF0001A641A6C02F008020292029A1A6A42F0FD
:101E000008021A621A6A22F008021A62069AA3F5F8
:101E10000B3323604FF0FF33E3601A4B002A2AD1C3
:101E2000B0FBF3F001380025606015482561A5601E
:101E3000656102F01FF8144B144A9B681048C3F800
:101E40000821134B4FF480225A60294602F0FEF815
:101E500004210B4802F0FAF823680E4A596A11600F
:101E6000126802F57A729A63DA68284642F0040230
:101E7000DA6009B030BD4000D2E700BF0038024050
:101E8000B415002040420F0000ED00E0791D00086D
:101E900000E100E0FC10002000B589B003F046F836
:101EA000052101A802F04CFE039B019A1A609620BE
:101EB00003F0B6F8019B049A1B041360962003F00C
:101EC000AFF8F1E770B50D46A0B0044603F02EF868
:101ED0002B4622468021684606F0E6FC051E03DC00
:101EE00003F050F820B070BD094B1B6823B90322E2
:101EF0000221084800F0FAFD064E00241DF80410E7
:101F00003046013400F010FFA542F7D1E8E700BFEA
:101F100078120020641500200FB407B504A951F809
:101F2000040B0191FFF7CEFF03B05DF804EB04B0A2
:101F3000704708B502F0E2FA00F024FF02F0D0FA90
:101F4000BDE8084002F0DABA08B5084B1B685BB977
:101F500002210748032200F0C9FD4FF4165104483E
:101F6000BDE8084000F0BEBE08BD00BF78120020EA
:101F700064150020022810B501DC002010BDC31E2E
:101F80000B4A52F82300002142F8231030B903F025
:101F9000D9F8092303604FF0FF3010BD03685B6977
:101FA0009847041EE9DA03F0CDF864420460F2E7D2
:101FB000001100200228F8B50D4614460EDC134B24
:101FC0001B680BB9FFF7C0FF114E2F19BD4210D08F
:101FD00015F8011B304600F0A7FEF7E703380D4B5C
:101FE00053F8200038B903F0ADF8092303604FF02F
:101FF000FF342046F8BD0368DB689847041EF8DA12
:1020000003F0A0F863420360F3E700BF78120020FA
:102010006415002000110020022810B50C460BDCCE
:10202000104B1B680BB9FFF78FFF0F4800F06AFEDB
:1020300020700124204610BD03380C4B53F82000BB
:1020400030B903F07FF8092303604FF0FF34F1E764
:1020500003689B689847041EECDA03F073F8634248
:102060000360E7E7781200206415002000110020CB
:10207000022810B516DD03380B4B53F820402CB95D
:1020800003F060F809230360204610BD2368204652
:10209000DB699847041EF7DA03F054F864420460E1
:1020A0000024F1E70124EFE700110020022810B519
:1020B00006DC03F047F81D2303604FF0FF3010BD2E
:1020C00003380A4B53F8200018B903F03BF80923F2
:1020D000F2E703681B699847041E04DA03F032F83C
:1020E00064420460E9E7204610BD00BF00110020F3
:1020F000022808B504DC4FF400534B60002008BDF3
:1021000003F020F8092303604FF0FF3008BD08B545
:10211000012000F037F800000C4A136810B518448D
:10212000EFF30881884205D3094B0C221A604FF067
:10213000FF3010BD07490C6824B1074909682144E4
:102140008842F1D21060184610BD00BFD0010020B7
:1021500014160020081200200C120020074C08B5AD
:1021600023680546986803F027F92368D86803F0C8
:1021700023F90DB1FFF790FEFEE700BFD801002064
:102180000120704708B5FFF7E9FF012070470021E3
:1021900004F0E4B91FB504220C463A230DEB02010A
:1021A00001900DF109008DF8083003F019FF214668
:1021B00002A803F073FA044638B101980368DB699A
:1021C000984710B12046FFF7E2FF204604B010BD4B
:1021D00003F004B97047704708B5FFF7FBFF08BD6F
:1021E00008B5FFF7F8FF08BD08B103F09DBE7047C2
:1021F000FFF7FABF034610B553F8042B044602B9A3
:10220000036022689A4204D05B220349034802F02B
:10221000AFFD206810BD00BF80E40008C8E40008DE
:1022200010B504460948FFF7E5FF0023084A1946A0
:1022300052F82300A04208BF42F823100133402B7C
:10224000F6D10248FFF7D6FF10BD00BF00120020F4
:10225000001100202DE9FF4789464049064604F059
:10226000A3FA044628B9FFF76FFE204604B0BDE884
:10227000F0873B49304604F097FA18B9FFF764FE3F
:102280000124F2E73749304604F08EFA18B9FFF717
:102290005BFE0224E9E73448344DFFF7ABFF00242E
:1022A000A84655F82470002F40D00134402CF8D1B6
:1022B00002F048FF182303602B48FFF79BFF0EE056
:1022C000314602A802F00AFD02A802F04BFD0646C4
:1022D00040B902F037FF0223036045F824604FF055
:1022E000FF34C2E702A802F02BFD074602A81FB187
:1022F00002F02FFD01902BE002F019FD06460028A8
:10230000E7D0036802A8D3F808A002F005FD29F47D
:102310008033024601A93046D0470646C0B102F0DC
:1023200011FF7642066045F82470D8E74FF0FF337E
:102330000D4845F82430FFF75DFF337801973A2BBD
:10234000BED10422711C02A803F04AFE029B019335
:10235000019B48F82430033487E700BFE4E4000819
:10236000EBE40008DCE4000800120020001100206B
:1023700070477047074B08499A68084810B5043AF7
:1023800052F8044F41F8044F8142F9D14FF0005206
:102390009A6010BD00ED00E0FCFFFF1FC0010020AF
:1023A00008B5FFF7E7FFFFF7C4FDFFF7E2FF08BD41
:1023B00008B5FFF7DDFFBDE80840FEF765BD30B5A5
:1023C000C36891FAA1F4B4FA84F491FAA1F1032557
:1023D000B1FA81F1640005FA04F4490023EA040328
:1023E00002FA01F11943C16030BD012A02D0022A6C
:1023F00018BF0022FFF7E3BF2DE9F0410E46411C54
:10240000044604D13E224449444802F0B1FC04F0A1
:102410000F08434BC4F3031053F82850FFF7FEF99D
:1024200006F007070446836895FAA5F1B1FA81F131
:1024300095FAA5F20320490000FA01F1B2FA82F2FE
:1024400023EA01035200022101FA02F21343A360BE
:1024500087425AD8DFE807F05E1D021DB8F1070F6A
:10246000C6F303203BD9626A2B0A93FAA3F1B1FAAF
:1024700081F193FAA3F34FF00F0EB3FA83F38900BF
:102480000EFA01F19B0022EA010200FA03F3134362
:1024900063623B46226895FAA5F0B0FA80F095FA9F
:1024A000A5F14FF0030EB1FA81F140000EFA00F0F1
:1024B000490022EA00028B40013F1343012F2360B1
:1024C00005D8636832074CBF2B43AB436360C6F348
:1024D000011229462046BDE8F041FFF786BF226A77
:1024E00095FAA5F3B3FA83F395FAA5F14FF00F0E21
:1024F000B1FA81F19B000EFA03F3890022EA03028C
:1025000000FA01F313432362C3E767220249054837
:1025100002F02EFC0023BDE734E500085CE3000870
:10252000F4E4000875E50008431C70B506460D4646
:1025300004D188221B491C4802F01AFC06F00F0245
:102540001A4BC6F3031053F82240FFF767F904FB58
:1025500004F2016802EB42030B40B3FBF2F3013BD0
:10256000012B05D8EB1E022B436809D82343436097
:10257000032D08D101222146BDE87040FFF735BF89
:1025800023EA04034360012DF4D0052D01D0022D70
:1025900001D10222EFE721460022BDE87040FFF79B
:1025A0000EBF00BF34E500085CE30008F4E4000857
:1025B00030B507EE101A284B02681A60B5EEC07AE3
:1025C000F1EE10FA89B0054628D4F7EE007AB4EEA1
:1025D000677AF1EE10FAC8BFB0EE677AD5ED037AEC
:1025E000F8EE677A602267EE877A0192FCEEE77A6E
:1025F000AA68C5ED047A17EE903AB3FBF2F30293A2
:102600000023039305930693049307932B7D013BCB
:10261000032B16D8DFE803F01B0517199FED0F7A7F
:10262000DCE70424224601A90B4801F087FC10B125
:102630000B4802F0C5FC6B7D074821464BB101F009
:1026400013FD09B030BD0824ECE70C24EAE70024B0
:10265000E8E701F0E1FCF4E71012002000000000C0
:1026600002E60008C368ABB107EE903AD0ED046A09
:10267000B8EE677AF8EE666AC6EE877AB7EE007A49
:10268000F4EE477AF1EE10FAC8BFF0EE477A17EE93
:10269000900A7047DFED017AF9E700BF0000000003
:1026A0002DE9F0474C4C0268226086B000230E46AC
:1026B00000930546FFF7D6FF116A41F21113194244
:1026C000074608D1116A40F24443194202BF136819
:1026D00023F001031360694601A800F0C3FD3F48E1
:1026E0002968002380465FFA83F9013350F83920C6
:1026F0008A42F8D111B93A4802F062FC08EBC908E5
:1027000098F804306BBB00F07DFD009004980099B0
:102710000123AB60334B48BBB1FBF3F3013B636078
:1027200006F1FF3E4FF0000962682E4BC4F80CE042
:102730004FEA410CCA46BCFBF3FCB1FBF3F14FF688
:10274000FE787346B3F5803F14D2B2F5803F11D2C4
:10275000BAF1000F00D06260B9F1000F1ED0E36043
:102760001CE000F067FD00900598D0E74A00B2FB3E
:10277000F3F3D3E7AB685B00AB6030BB01FB03F264
:10278000BEFBF3F3434502F1FF3221D8B2F5803F9F
:102790001ED315486260E36002F012FC00230E486D
:1027A0002361A36001F080FB10B10F4802F008FC28
:1027B000EE6039462846FFF7FBFE2268136843F0B7
:1027C0000103136006B0BDE8F0870CFB03F2D7E706
:1027D0004FF00109CA46B5E7101200201CE60008B8
:1027E000EDE5000840420F0002E6000870B50E4615
:1027F00004468CB07349304602F0E2F920600130A3
:1028000004D12E227049714802F0B2FA6D49304667
:1028100002F0F2F9431C054604D132226A496C48A1
:1028200002F0A6FAC5F304336A4A23752368C5F398
:102830004045934265754FF0000229D10092664AE7
:10284000516C41F001015164526C02F0010200929E
:10285000009A624A934238D1002205925E4A516C36
:1028600041F002015164526C02F002020592059A95
:102870005B4A934238D100230A93574B1A6C42F0BB
:1028800080021A641B6C03F080030A930A9B59E0D0
:10289000B3F1804F0BD101924F4A116C41F001010D
:1028A0001164126C02F001020192019AD1E74D49C4
:1028B0008B4229D10292484A116C41F00201116405
:1028C000126C02F002020292029A474A934229D104
:1028D00000220692404A516C41F480315164526C9E
:1028E00002F480320692069A404A93422AD100238B
:1028F0000B93394B1A6C42F480721A641B6C03F40C
:1029000080730B930B9B1DE039498B422BD10392B3
:10291000314A116C41F004011164126C02F004029E
:102920000392039A334A93424FF000023BD12A4B61
:1029300007925A6C42F400325A645B6C03F4003321
:102940000793079B1F49304602F0FEF80023E3601F
:1029500023610123A680A36044F620612046FFF78F
:102960009FFE0CB070BD24498B427FF472AF04927D
:10297000194A116C41F008011164126C02F008024E
:102980000492049A1D4A93427FF472AF0023099384
:10299000114B1A6C42F040021A641B6C03F04003A6
:1029A0000993099BCEE716498B42EBD10A4B08925B
:1029B0005A6C42F480225A645B6C03F480230893BF
:1029C000089BBFE73CDF000877E50008BCE500088E
:1029D000D4E5000800000140003802400004014036
:1029E000001C004000040040004001400020004066
:1029F0000008004000440140000C00400018004066
:102A00000048014007EE901AB8EEE77AD0ED037A5D
:102A1000F8EE677AC7EE276A16EE901AFFF7C8BD80
:102A200007EE101ADFED047A67EE277AFDEEE77AFB
:102A300017EE901AFFF7E6BF002474494268164962
:102A4000920110B504685450531882685A60C268E5
:102A50009A600269DA6042691A61026A9A61002228
:102A6000DA84DA619A84DA859A85B0F91A2001321B
:102A70000AD108225A61184601F023FC58B10748D0
:102A8000BDE8104002F09CBAB0F9182001320CBF2A
:102A900004220C22EEE710BDE412002084E60008B8
:102AA0004368094A9B0182B0D3581A68120706D5B9
:102AB000002201921A6801925A680192019A1868DC
:102AC000C0F3401002B07047E41200204368034A8C
:102AD0009B01D3581868C0F3C0107047E41200205F
:102AE000014902F031B800BF04E10008F0B50E461C
:102AF00087B0044671493046154602F061F87049C6
:102B00000746284602F05CF80146384602F03AF8DB
:102B10002060013004D13E226A496B4802F028F956
:102B200023686A4A934200F09C8036D8A2F500627E
:102B3000934269D002F5806293427CD05F4930466F
:102B400002F002F85E49284601F0FEFF721C03D035
:102B500001213046FFF7E8FC6B1C03D00121284619
:102B6000FFF7E2FC4FF41653A3600023E3602361F8
:102B700063612362268365832046FFF75FFF226837
:102B8000534B9A4207D1534B534801221A602146B6
:102B90004C2203F025FA07B0F0BD504A93421DD0F5
:102BA00002F58062934272D0A2F544429342C5D1AD
:102BB0004B4B1A6A42F480121A621A6A22F480128B
:102BC0001A62002204921A6C42F480121A641B6C7E
:102BD00003F480130493049B04232AE0404B5A6AB5
:102BE00042F010025A625A6A002122F010025A6220
:102BF00000915A6C42F010025A645B6C616003F001
:102C000010030093009B99E7354B1A6A42F4003297
:102C10001A621A6A22F400321A62002201921A6CB5
:102C200042F400321A641B6C03F400330193019BDD
:102C30000123636082E72A4B1A6A42F480221A62F7
:102C40001A6A22F480221A62002202921A6C42F45A
:102C500080221A641B6C03F480230293029B0223DC
:102C6000E7E71F4B1A6A42F400221A621A6A22F43A
:102C700000221A62002203921A6C42F400221A64A3
:102C80001B6C03F400230393039B0323D1E7144B32
:102C90005A6A42F020025A625A6A22F020025A62AC
:102CA000002205925A6C42F020025A645B6C03F0D9
:102CB00020030593059B0523BBE700BF04E1000843
:102CC00098E000089CE60008F3E60008004C00408D
:102CD00000440040781200206415002000100140DC
:102CE000003802408160FFF7A9BE0000034B196065
:102CF0004168034B43F82120704700BF4C1200206D
:102D00005012002038B5446805462846FFF7C8FE33
:102D10000028FAD0A401034B1B595868C0F30800DF
:102D200038BD00BFE412002070B5456806460C4669
:102D30003046FFF7CBFE0028FAD0AD01024B5B59BD
:102D4000C4F308045C6070BDE4120020DFF820D0FA
:102D5000002103E0074B5B58435004310648074B02
:102D600042189A42F6D301F0DBFAFDF74BFA7047AE
:102D70000000022068ED0008C8010020900B002030
:102D8000FEE7000008B50A4B1A6842F400721A60A8
:102D90001A6842F480621A601A6842F480721A60FB
:102DA0000F20FFF715F800F029F9002008BD00BF3B
:102DB000003C0240024A136801331360704700BFB1
:102DC000B0150020014B1868704700BFB0150020F7
:102DD0004A69012330B503FA02F53C4BD3F80002EF
:102DE00040F00100C3F80002D3F8000220F47C5048
:102DF000C3F80002D3F800024C6A40EA0420C3F88A
:102E00000002D3F81C02EC432040C3F81C02C8693E
:102E1000002836D1D3F80C022040C3F80C02D200AF
:102E2000C8688B8802F1804202F5C84243EA004339
:102E3000C2F8403288680B8843EA0043C2F8443243
:102E40008B692248002B35D1D0F804322340C0F8DA
:102E500004320B691D4A8BBBD0F814321C40C0F8F9
:102E600014420B6A012B02BFD2F81C322B43C2F86A
:102E70001C32D2F8003223F00103C2F800320020E5
:102E800030BD0128DCD1D3F80C022843C3F80C0272
:102E90000B68888840EA0340D30003F1804303F5C0
:102EA000C8438A89C3F84002886842EA0042C3F8EE
:102EB0004422C5E7D0F804322B43C8E7012B02BFF8
:102EC000D2F814322B43C2F81432CAE7006400402F
:102ED000704770B50446002872D090F83C3003F07B
:102EE000FF021BB980F83D20FFF7F2FF022384F8B0
:102EF0003C3023681A6822F002021A601A6842F015
:102F000001021A60FFF75EFF064623685D6815F050
:102F1000010557D05A68D1074FD5A269012A1A680E
:102F20000CBF42F0800222F080021A60E269012A9E
:102F30001A680CBF42F0400222F040021A60226A76
:102F4000012A1A680CBF42F0200222F020021A6007
:102F5000626A012A1A680CBF42F0100222F01002C5
:102F60001A60A26A012A1A680CBF42F0080222F015
:102F700008021A60E26A012A1A680CBF42F00402D1
:102F800022F004021A60E168A2680A4321690A4338
:102F900061690A43616801390A43DA611A6822F0FB
:102FA00001021A60FFF70EFF054623685A68D20730
:102FB00013D4586810F001001BD0042384F83C306F
:102FC000012070BDFFF7FEFE801B0A289DD903205B
:102FD00084F83C0084F83D5070BDFFF7F3FE401BC1
:102FE0000A28E2D90320002384F83C0084F83D300D
:102FF00070BD0123206484F83C3070BD7047000030
:1030000037B500230193224B1A6C42F080521A64A8
:103010001B6C03F080530193019B4FF4803393FAB0
:10302000A3F3B3FA83F303F1845303F560339B00F6
:1030300001221A60FFF7C6FE164C05466368DA03E4
:1030400015D54FF4003393FAA3F3B3FA83F303F1E6
:10305000845303F560339B0001221A60FFF7B2FE30
:103060000C4C054663689B030AD5002006E0FFF779
:10307000A9FE401BB0F57A7FE0D9032003B030BD34
:10308000FFF7A0FE401BB0F57A7FEBD9F5E700BF54
:103090000038024000700040564B1A6802F00F02E0
:1030A0008A422DE9F04105460E4630D32A6894073E
:1030B00037D4D0073DD44F4B1A6802F00F02964226
:1030C000C0F088802A68510700F18C80130707D56B
:1030D000494A2969936823F4604343EAC103936032
:1030E00000F0CEFB444BF0229B6892FAA2F2B2FAB7
:1030F00082F203F0F003D340404AD35CD840404B07
:1031000018600F20FEF764FE0020BDE8F081CAB20F
:103110001A701B6803F00F039942C7D00120BDE865
:10312000F0813549A8688B6823F0F00303438B6076
:10313000BFE76A68304B012A1ED11B6813F4003FB9
:10314000ECD02D4CA36823F003031343A360FFF7D7
:1031500039FE6B68012B074641F2883816D1A36807
:1031600003F00C03042BA6D0FFF72CFEC01B404538
:10317000F5D90320BDE8F081911E01291B6802D812
:1031800013F0007FDCE713F0020FD9E7022B0AD11E
:10319000A36803F00C03082B8DD0FFF713FEC01BB0
:1031A0004045F5D9E5E7032B0FD1A36803F00C03E5
:1031B0000C2B80D0FFF706FEC01B4045F5D9D8E7A1
:1031C000FFF700FEC01B4045D3D8A36813F00C0FD7
:1031D000F6D170E7F2B21A701B6803F00F039E423B
:1031E0009CD16FE70449E8688B6823F4E0530343FC
:1031F0008B606BE7003C0240003802400FE700089C
:10320000D4010020084B4FF4E0529B6892FAA2F2DE
:10321000B2FA82F203F4E053D340044AD35C044A86
:103220001068D840704700BF003802401FE7000810
:10323000D4010020084B4FF460429B6892FAA2F23E
:10324000B2FA82F203F46043D340044AD35C044AE6
:103250001068D840704700BF003802401FE70008E0
:10326000D40100200F2303600B4B9A6802F0030285
:1032700042609A6802F0F00282609A6802F4E052BA
:10328000C2609B68DB0803F4E0530361034B1B68D7
:1032900003F00F030B60704700380240003C02400F
:1032A0002DE9F04F036813F0010685B004460BD0FA
:1032B000C849866BD1F88C2022F0C0623243B6FA3E
:1032C00086F6C1F88C20760999070BD5C148E16BC9
:1032D000D0F88C2022F0C0520A430029C0F88C207C
:1032E00008BF012613F0040512D0BA49256BD1F8A6
:1032F0008C20B5F5801F22F4401242EA050218BF67
:10330000B5FA85F5C1F88C2012BF6D09002501269C
:103310001A070FD5AF48616BD0F88C2022F4400219
:103320000A43B1F5800FC0F88C2000F0BF8100295E
:1033300008BF01259F0633D500230393A54BA64F55
:103340001A6C42F080521A641B6C03F08053039392
:10335000039B3B6843F480733B60FFF733FD80467B
:103360003B68D80540F1A4819A4F3B6F13F440733A
:1033700040F0A981236C03F44072B2F5407F954A76
:1033800040F0C481916823F0704021F4F81120F4DA
:10339000407001439160116FC3F30B030B4313673C
:1033A0002368DB0642BF8D4B94F858201A602368CF
:1033B0001F0608D58749E06CD1F8942022F440021A
:1033C0000243C1F89420580608D58249A06CD1F870
:1033D000942022F080620243C1F89420D9050CD5D4
:1033E0007C48616DD0F8942022F000620A43B1F16C
:1033F000006FC0F8942008BF01259A0508D57549CB
:10340000606CD1F8942022F080520243C1F89420DD
:103410005F0500F17F81012E40F08A81704E6D4F73
:1034200000233360FFF7CEFC019680463B6818010D
:1034300000F10B822068C10701D5A36B23B182077D
:1034400046D5E36B002B43D1624F4FF44031D7F8A0
:10345000842091FAA1FE4FF0706CBEFA8EFED7F870
:1034600084309CFAACF847F6C07BB8FA88F89BFA2F
:10347000ABFBBBFA8BFB91FAA1F1B1FA81F19CFA9B
:10348000ACFC4FF0E04ABCFA8CFC9AFAAAFAA668A7
:1034900002F4403206FA0BF96669BAFA8AFA22FA9D
:1034A0000EF206FA0AFA03F070636668013249EA1E
:1034B0000A0923FA08F322F0004249EA060903FA4E
:1034C0000CF3013A49EA03038A401343C7F88430F6
:1034D000430703D5236BB3F5801F05D0070750D5ED
:1034E000636BB3F5800F4CD13A4F4FF44031D7F8AE
:1034F000842091FAA1FE4FF0E04CBEFA8EFED7F880
:1035000084309CFAACF847F6C07BB8FA88F89BFA8E
:10351000ABFBBBFA8BFB91FAA1F14FF0706AB1FAE9
:1035200081F19AFAAAFABAFA8AFA9CFAACFCA6686D
:1035300002F4403206FA0BF9266922FA0EF206FA74
:103540000AFA03F0E04366680132BCFA8CFC49EAEF
:103550000A0923FA08F322F0004249EA060903FAAD
:103560000CF3013A8A4049EA03031343C7F8843055
:10357000D7F88C20A36A22F01F02013B1343C7F83F
:103580008C30460553D5236DB3F1005F4FD1DFF882
:1035900044C04FF4403BDCF884209BFAABF84FF07A
:1035A000E047B8FA88F8DCF8841097FAA7F947F6EC
:1035B000C07AB9FA89F99AFAAAFABAFA8AFA9BFA97
:1035C000ABFB4FF0706EBBFA8BFB9EFAAEFEBEFA01
:1035D0008EFE07E00038024000700040E0114742D4
:1035E0006800474297FAA7F7E368A6685B08013BC3
:1035F00002F4403206FA0AFA03FA0BF3666801F0A5
:10360000E04122FA08F8B7FA87F743EA0A0321FAF9
:1036100009F908F10108334309FA07F74FEA4808A6
:103620001F4308FA0EFE47EA0E07CCF88470010526
:103630002CD547F6C07797FAA7F74FF44033B7FA7F
:1036400087F793FAA3F34FF07060B3FA83F290FA1E
:10365000A0F04FF0E041B0FA80F091FAA1F1E368F8
:103660005B08013B9340A26802FA07F762683B439C
:103670001343226902FA00F06269B1FA81F102FA99
:1036800001F103437B4A0B43C2F88430019A794E1F
:1036900001231360FFF796FB074633681A014BD4EA
:1036A000FFF790FBC01B0228F7D908E0012641E68E
:1036B000FFF788FBA0EB080002287FF651AE03203D
:1036C00005B0BDE8F08F226C02F4407293423FF4E3
:1036D00051AE3B6F684A0121116023F44073002111
:1036E00011603B673B6FD9077FF544AEFFF76AFB7C
:1036F00041F2883980463B6F9A073FF53BAEFFF7B2
:1037000061FBA0EB08004845F5D9D8E7916821F4A2
:10371000F8113FE65748216DD0F8942022F000526E
:103720000A43B1F1005FC0F894207FF474AE75E6EF
:10373000B3F5006F3FF472AE012D40F084804F4D21
:103740004C4E00232B60FFF73DFB074633689B0080
:1037500000F183802068460701D5236B1BB1010768
:1037600038D5636BB3BB43494FF44036D1F888304A
:1037700096FAA6FE47F6C072BEFA8EFE92FAA2F242
:10378000B2FA82F796FAA6F64FF0706CB6FA86F6A1
:103790009CFAACFCE26903F44033BA40676ABCFAB5
:1037A0008CFC23FA0EF307FA0CF701333A4323F0AB
:1037B0000043A769013B3A43B3401343C1F8883043
:1037C000D1F88C30E26A23F4F853013A43EA022339
:1037D000C1F88C30C2052DD5636DB3F1006F29D1CE
:1037E00024494FF07060D1F8882090FAA0F647F68F
:1037F000C07EB6FA86F69EFAAEFE4FF44033BEFAAD
:103800008EFE93FAA3F3B3FA83F790FAA0F0236A3B
:103810005B08013BBB40E769A46907FA0EF702F0B9
:103820007062B0FA80F03B43F2402343824013437E
:10383000C1F8883001232B60FFF7C4FA0D4C054610
:1038400023689B0010D500203AE7FFF7BBFAA0EBF6
:10385000080002287FF6EAAD31E7FFF7B3FAC01B94
:1038600002287FF673AF2AE7FFF7ACFA401B022865
:10387000E6D924E700380240400E47427000474234
:103880002B4B9A6802F00C02082A07D00C2A2CD085
:10389000284B2948042A18BF184670475A685968A7
:1038A0005B6811F4800F02F03F0247F6C07191FA95
:1038B000A1F0B0FA80F003EA010323FA00F314BF89
:1038C0001D481C48B0FBF2F05843194B4FF44032EE
:1038D0005B6892FAA2F2B2FA82F203F44033D34068
:1038E00001335B00B0FBF3F070475A6859685B68BE
:1038F00011F4800F02F03F0247F6C07191FAA1F077
:10390000B0FA80F003EA010323FA00F314BF0A4877
:103910000848B0FBF2F05843054B4FF0E0425B68BB
:1039200092FAA2F2B2FA82F203F0E043D340D9E76E
:10393000003802400024F40000127A000368F7B552
:10394000DE0704463BD423689D0700F1928023687C
:103950001E0700F1E68023685D072AD50023019346
:10396000984B994D1A6C42F080521A641B6C03F00C
:1039700080530193019B2B6843F480732B60FFF706
:1039800021FA06462B68DA0540F1ED80A3688D4DDB
:10399000012B40F0EF802B6F43F001032B67FFF703
:1039A00011FA884D064641F288372B6F9B0740F18C
:1039B0000281A269002A40F00D8100201EE0814BA7
:1039C0009A6802F00C02042A10D09A6802F00C02E5
:1039D000082A02D15B68580208D47A4B9A6802F030
:1039E0000C020C2A0CD15A68510209D5754B1B6880
:1039F0009A03A8D56368002BA5D1012003B0F0BDC0
:103A00006268B2F5803F11D11A6842F480321A60C0
:103A1000FFF7D8F96B4D06462B689B0393D4FFF74D
:103A2000D1F9801B6428F7D90320E7E7654DB2F58B
:103A3000A02F2B6807D143F480232B602B6843F41D
:103A400080332B60E4E723F480332B602B6823F46E
:103A500080232B60002ADBD1FFF7B4F906462B68E0
:103A60009F037FF570AFFFF7ADF9801B6428F6D98F
:103A7000DAE7544B9A6812F00C0F10D09A6802F0F3
:103A80000C02082A02D15B68580208D54D4A936897
:103A900003F00C030C2B16D15368590213D4494B75
:103AA0001A68920702D5E268012AA6D11868F8229E
:103AB00092FAA2F2B2FA82F122698A4020F0F80169
:103AC0000A431A6043E7E268404BDAB101221A6008
:103AD000FFF778F93B4D06462B689B070CD5296804
:103AE000F82393FAA3F3B3FA83F22369934021F006
:103AF000F80213432B602AE7FFF764F9801B0228C2
:103B0000EAD991E71A60FFF75DF92E4D06462B685A
:103B10009F077FF51CAFFFF755F9801B0228F6D9E8
:103B200082E762692A4B7AB101221A60FFF74AF9EB
:103B3000244D06466B6F98073FF50DAFFFF742F92E
:103B4000801B0228F6D96FE71A60FFF73BF91D4D7D
:103B500006466B6F99077FF5FEAEFFF733F9801BC2
:103B60000228F6D960E7FFF72DF9801B02287FF6BF
:103B700009AF59E7052B04D12B6F43F004032B67E2
:103B800009E72A6F22F001022A672A6F22F0040255
:103B90002A67002B7FF403AFFFF714F941F288374F
:103BA00006462B6F98077FF504AFFFF70BF9801BD4
:103BB000B842F6D938E7FFF705F9801BB8427FF61F
:103BC000F4AE31E700380240007000400000474288
:103BD000800E4742304DAB6803F00C03082B3FF4D6
:103BE0000CAF2E4E0023022A336048D1FFF7EAF8CB
:103BF00007462B6899013CD447F6C07E9EFAAEFE7C
:103C00004FF44032BEFA8EFE92FAA2F24FF070608C
:103C1000B2FA82F790FAA0F04FF0E041B0FA80F0EB
:103C200091FAA1F1226AE3691343626A02FA0EF281
:103C30001343A26A5208013ABA401343E26A02FAF5
:103C400000F0226B144CB1FA81F1034302FA01F146
:103C50000B436B6001233360FFF7B4F8054623681C
:103C60009A013FF5AAAEFFF7ADF8401B0228F6D93E
:103C7000DAE6FFF7A7F8C01B0228BAD9D4E6FFF7A7
:103C8000A1F804462B689B017FF597AEFFF79AF8E1
:103C9000001B0228F6D9C7E6003802406000474200
:103CA000036A23F001030362036A426870B5846902
:103CB0000D6824F0730425438C6823F0020323432A
:103CC0000C4CA04209D004F58064A04205D04260AB
:103CD0004A6885614263036270BDCC688E6923F0D7
:103CE000080323434C6922F44072344323F0040355
:103CF0002243ECE700000140036A23F4807303626F
:103D0000036A426870B5C4690D6824F073042543E2
:103D10008C6823F4007343EA04230E4CA04209D0BC
:103D200004F58064A04205D042604A68C561C26360
:103D3000036270BDCC688E6923F4006343EA0423F8
:103D40004C6922F44052344323F4806342EA041263
:103D5000EAE700BF00000140036A23F480530362D6
:103D600030B5046A4368C2690D6822F4E64242EA4B
:103D700005228D6824F4005444EA0534094DA84214
:103D800009D005F58065A84205D043604B68C26143
:103D90000364046230BD4D6923F4804343EA851314
:103DA000F3E700BF00000140704770472E4A0368E8
:103DB000904212D0B0F1804F0FD0A2F57C429042D9
:103DC0000BD002F58062904207D002F580629042EB
:103DD00003D002F5784290421DD14A6823F0700367
:103DE0001343214A904204D1CA6823F44073134319
:103DF00028E0B0F1804FF7D01C4A9042F4D002F591
:103E000080629042F0D002F580629042ECD002F5E0
:103E100078429042E8D0164A9042E5D002F580629E
:103E20009042E1D002F580629042DDD0A2F5983256
:103E30009042D9D002F580629042D5D002F58062DE
:103E40009042D1D003608B68C3620B688362064BDB
:103E5000984206D003F58063984202D00123436163
:103E600070470B690363F9E700000140000400405C
:103E70000040014010B50446A0B190F8393003F07D
:103E8000FF021BB980F83820FFF78EFF022384F869
:103E900039302068211DFFF789FF012384F839306C
:103EA000002010BD012010BD10B50446A0B190F84F
:103EB000393003F0FF021BB980F83820FFF775FF97
:103EC000022384F839302068211DFFF76FFF01239A
:103ED00084F83930002010BD012010BD036A23F0A2
:103EE00010030362036A426870B584690D6824F4A4
:103EF000E64444EA05258C6823F0200343EA0413D2
:103F00000D4CA04209D004F58064A04205D0426067
:103F10004A6885618263036270BDCC688E6923F054
:103F2000800343EA04134C6922F44062344323F0D3
:103F3000400342EA8402EAE70000014038B590F805
:103F40003830012B04464FF0020025D0012384F8BD
:103F5000383084F839000C2A18D8DFE802F0071747
:103F600017171E1717172F17171740002068FFF78E
:103F700097FE236809699A6942F008029A619A6972
:103F800022F004029A619A690A439A61012300208F
:103F900084F8393084F8380038BD2068FFF79EFF78
:103FA000236809699A6942F400629A619A6922F465
:103FB00080629A619A6942EA0122E6E72068FFF787
:103FC0009BFE23680969DA6942F00802DA61DA695E
:103FD00022F00402DA61DA690A43DA61D6E720687E
:103FE000FFF7BAFE23680969DA6942F40062DA6110
:103FF000DA6922F48062DA61DA6942EA0122ECE7E6
:10400000036A10B501248C4023EA04030362036AA7
:104010008A401A43026210BD10B5044601220068AE
:10402000FFF7EEFF2368084A934203D002F580624F
:10403000934203D15A6C42F400425A641A6842F027
:1040400001021A60002010BD00000140FFF7E4BF2C
:10405000036A10B504248C4023EA04030362036A54
:104060008A401A43026210BD10B50446042200685B
:10407000FFF7EEFF23685A6C42F400425A641A6854
:1040800042F001021A60002010BD00002DE9F04747
:104090000668C2683369C16923F44053134333612E
:1040A000044683680069F2680343606922F416429B
:1040B000034322F00C020B431343F3607369A269BC
:1040C00023F440731343B1F5004F73617A4B7CD1F5
:1040D0009E4203D003F580639E4244D1FFF7AAF8C5
:1040E000192505FB00F360684FF064094000B3FB3D
:1040F000F0F3B3FBF9F34FEA0318FFF79BF863689B
:1041000068435B00B0FBF3F7FFF794F8636868431C
:104110005B00B0FBF3F3B3FBF9F309FB1373DB00B4
:104120003233B3FBF9F35B0003F4F877FFF782F85F
:10413000626868435200B0FBF2FAFFF77BF86368ED
:1041400068435B00B0FBF3F3B3FBF9F309FB13A384
:10415000DB003233B3FBF9F303F0070343443B4482
:10416000B360BDE8F087FFF74DF8192505FB00F3B4
:1041700060684FF064094000B3FBF0F3B3FBF9F360
:104180004FEA0318FFF73EF8636868435B00B0FB33
:10419000F3F7FFF737F8636868435B00B0FBF3F3AE
:1041A000B3FBF9F309FB1373DB003233B3FBF9F311
:1041B0005B0003F4F877FFF725F862686843520064
:1041C000B0FBF2FAFFF71EF8B9E79E4202D03B4B74
:1041D0009E4240D1FFF72EF8676819254FF0640919
:1041E00005FB00F3BF00B3FBF7F3B3FBF9F31F01CB
:1041F000FFF720F8636868439B00B0FBF3F8FFF714
:1042000019F8636868439B00B0FBF3F3B3FBF9F361
:1042100009FB13831B013233B3FBF9F303F0F008FE
:10422000FFF708F8626868439200B0FBF2FAFFF704
:1042300001F8636868439B00B0FBF3F3B3FBF9F349
:1042400009FB13A31B013233B3FBF9F303F00F0394
:1042500043EA080383E7FEF7D5FF676819254FF0A7
:10426000640905FB00F3BF00B3FBF7F3B3FBF9F3FD
:104270001F01FEF7C7FF636868439B00B0FBF3F8BC
:10428000FEF7C0FF636868439B00B0FBF3F3B3FB2A
:10429000F9F309FB13831B013233B3FBF9F303F08A
:1042A000F008FEF7AFFF626868439200B0FBF2FAD5
:1042B000FEF7A8FFBDE700BF001001400014014059
:1042C000704710B5044640B390F8393003F0FF0250
:1042D0001BB980F83820FFF7F3FF2268242384F805
:1042E0003930D36823F40053D3602046FFF7CEFE65
:1042F00023681A6922F490421A615A6922F02A024C
:104300005A61DA6842F40052DA6000202023E06348
:1043100084F8393084F83A3010BD012010BD000017
:104320000F49D1F8883043F47003C1F888300D4B41
:104330001A68002042F001021A6098601A6822F0A0
:10434000847222F480321A60074A5A601A6822F492
:1043500080221A60D8604FF000638B60704700BF06
:1043600000ED00E00038024010300024F0B5ADB0A0
:104370002C4B002101911A6C42F080521A641B6C84
:1043800003F080530193019B274B02911A6842F47A
:1043900040421A601B6803F440430293029B0123CE
:1043A0000893002839D14FF4803309934FF48003E8
:1043B0000F934FF4B47302250826119308A807231E
:1043C0000E951096129513931495FFF7B7FA38BB14
:1043D000FEF716FE074618BB4FF4C0731C934FF44C
:1043E0008073159315A84FF000632A931B961D96B2
:1043F000FEF756FF0F2303934FF4A05306930521B6
:104400004FF4805303A8049505970793FEF744FEE5
:10441000B0FA80F040092DB0F0BD4FF4A023C4E7FE
:104420000020F8E7003802400070004030B5ADB021
:104430000023294A0193116C41F080511164126CE0
:1044400002F080520192019A244A0293116841F4C9
:10445000404111601268099302F440420292029AAC
:104460000F9303224FF4B4730892012202240B929B
:1044700011931022062308A80C920E941092129405
:104480001393FFF75BFA10B100202DB030BDFEF79B
:10449000B7FD05460028F7D108231B931D934FF461
:1044A0008073C022159315A84FF000631C922A93C5
:1044B000FEF7F6FE0F2303934FF4A0530693052156
:1044C0004FF4805303A8049405950793FEF7E4FD89
:1044D000B0FA80F04009D8E7003802400070004090
:1044E00008B50120FFF742FF30B9FFF73FFF18B9C9
:1044F000FFF79CFF00B9FEE708BD0000174A184906
:10450000936803F00C03042B10B50DD0082B0DD0CD
:10451000144B0B60114B144A9B68C3F30313D25C1A
:104520000B68D3400B6010BD104BF2E75468506825
:1045300052686302C2F3881200F03F004CBF0B4B7D
:10454000084BB3FBF0F35343044A5268C2F30142F1
:1045500001325200B3FBF2F3DBE700BF0038024048
:10456000D40100200024F4000FE7000800127A00B4
:10457000054B186830B901221A60044B044A1A60CE
:10458000FDF726BC704700BF7C120020B415002048
:10459000000C004008B5044B1B680BB9FFF7E8FF9F
:1045A000024B586A08BD00BF7C120020000C00407E
:1045B0000A4B0B4A1360DA6822F00202DA60586391
:1045C0005A6A801A0028DEBF5A6942F002025A6114
:1045D000DA6842F00202DA60704700BF000C004067
:1045E000B4150020034B044A1360DA6822F002027B
:1045F000DA607047000C0040B4150020034A044BF9
:1046000013606FF002021A61704700BFB4150020FA
:10461000000C00407047704770470000090170B5FA
:10462000441801F10C05A36905442BB940F20E2290
:104630000449054800F09CFBA36928461B68BDE8B7
:104640007040184727E700086BE70008F8B50546F3
:104650000E4655F8043B17469B68044698473A4671
:1046600031462846FCF7AEFF23680546DB68204646
:1046700098472846F8BD2DE9F3410546984655F878
:10468000043B9B6804460E4617469847089B0093D8
:104690003A46434631462846FCF7E0FF2368054684
:1046A000DB6820469847284602B0BDE8F08100004C
:1046B00070B504460B4B44F8043B05462046FCF716
:1046C000E1FE2046FCF7EEFE15F10C0605F19C0418
:1046D00006D0B44204D0103C2046FCF7CDFBF8E7EE
:1046E000284670BD78E7000810B50446FFF7E0FFE4
:1046F0002046FDF77DFD204610BD884238B50446B2
:104700000D460AD0FCF7B8FB3CB1EB681BB15B6807
:10471000294620469847EB68E360204638BD0000F4
:104720002DE9FF47184B03600F4600F10C030021F1
:10473000044690464160816000F19C061D46D960A8
:104740001033B342FBD1DFF848A0DFF84890CDF832
:1047500000A069462846CDF80C901035FFF7CDFF34
:104760006846FCF789FBAE42F1D1251D4246394629
:104770002846FDF74DF8284622460449FCF776FE08
:10478000204604B0BDE8F08778E700081D46000821
:1047900015460008B8DE00087047000010B5084B49
:1047A000044640F8203BFDF7BDFA04F14000FCF759
:1047B00063FB04F13000FCF75FFB204610BD00BF37
:1047C00090E7000810B50446FFF7E8FF2046FDF724
:1047D0000FFD204610BD00002DE9F04305461F4B9C
:1047E00045F8043B044685B00E4604F120071C2220
:1047F0000021284601F0FAFC10220021384601F081
:10480000F5FC0023E363E3646946DFF85890DFF8C2
:104810005880CDF8009004F13000CDF80C80FFF7FF
:104820006CFF6846FCF728FB694604F14000CDF8B0
:104830000090CDF80C80FFF760FF6846FCF71CFB8A
:104840002346074A31463846FDF7AAF9284631463D
:1048500000F063F9204605B0BDE8F08390E700085A
:10486000E148000899470008B8DE00087FB50E4609
:10487000044600F05BFBF56804F1300020345DB1C4
:104880003146FFF73AFF012201212046FDF710F9DA
:1048900000F078FB04B070BD054B00936946054BF2
:1048A0000393FFF72AFF6846FCF7E6FA2A46EBE790
:1048B00099470008B8DE0008C36810B504462BB954
:1048C00040F20E220449054800F052FAE3682046FF
:1048D0001B68BDE81040184727E700086BE7000891
:1048E000012908B502D0022904D008BD3030FFF7F5
:1048F000E3FF08BD4030FAE77047A0F1BC00FFF7C6
:10490000FBBFA0F1BC00FFF7F7BF00F06DB8A0F14E
:10491000BC00FFF7FABF00F06AB8A0F1BC00FFF7D7
:10492000FABF000038B504461D46049B00F066F847
:10493000294604F1BC0000F093FA064B03F108028B
:10494000226003F128028433C4F8BC20C4F8C030CC
:10495000204638BD98E7000870477047704710B48C
:1049600080B1146853680CB9DA070BD513F0010F46
:104970004FEA63031CBFC2581459184423465DF81C
:10498000044B18475DF8044B70470000090170B5EF
:10499000441801F19805D4F8A43005442BB940F22D
:1049A0000E220549054800F0E3F9D4F8A430284662
:1049B0001B68BDE87040184727E700086BE7000850
:1049C00070B50546044655F84C3B0E461B689847A3
:1049D00028463146FEF786F92368C4F8B8602046B9
:1049E0005B68BDE8704018474C30FEF78BB910B5D6
:1049F0004C300C46FEF798F9204610BD2DE9F043E7
:104A000087B00025914600950246019504468846E8
:104A10001F469DE80300274B42F8083B264B82E8DF
:104A20000300236148F207036361244BE561A4613D
:104A300022626362BFF36F8FBFF34F8F04F14C06A6
:104A40004C226563656484F8485084F849503046C8
:104A500001F0CCFB02A9C4F8A450C4F8B450C4F8C7
:104A6000B870174D174F029704F198000595FFF79E
:104A700044FE02A8FCF700FA02A904F1A80002977C
:104A80000595FFF73AFE02A8FCF7F6F94A464146BB
:104A90003046FEF72BF8D4F8B8103046FEF722F96E
:104AA000304622460849FEF721F9204607B0BDE806
:104AB000F08300BF2CE8000801A090E85F490008DF
:104AC000B8DE0008594900088D49000870B50E4647
:104AD00004461546FCF746FF013609D02046002162
:104AE000FCF764FF29462046BDE87040FCF75ABF3A
:104AF00070BD38B504460D4603685AB1826813602C
:104B000020460121FCF752FF29462046BDE83840E7
:104B1000FCF748BFC2681B04F1E70022FFF7D6BFCD
:104B200070B50E4604461546FCF71CFF013606D04C
:104B30002A4620460021BDE87040FFF7DABF70BD6D
:104B40000022FFF7EDBF000010B5044601300DD183
:104B500010BD9C4209D120468968FDF74DFC2046D6
:104B60000021BDE81040FDF7DFBC0C31B1F9003089
:104B70005A1CEED10248BDE8104000F021BA00BF37
:104B80008BE80008884208B508D0431C06D00131E4
:104B900006D0044800F014FA4FF0FF31084608BD73
:104BA0000146FBE75AE80008B1F900305A1C01D170
:104BB00018467047834201D1486870470C31F3E7CB
:104BC000421C10B5044607D0FFF7EEFF431C044615
:104BD00002D1024800F0F4F9204610BD6BE800084D
:104BE000B1F900305A1C01D118467047834201D1F7
:104BF000886870470C31F3E7421C10B5044607D0B3
:104C0000FFF7EEFF431C044602D1024800F0D8F93A
:104C1000204610BD3CE80008014800F03DB800BF48
:104C20009CE800080368D0B544685B68D4E9026773
:104C300098470022B04242EA00023B4602D20032CC
:104C400047F10103C4E90223D0BD2DE970430646B4
:104C5000FFF7E8FF73685A68DAB1D3E90245D2E991
:104C60000001A94208BFA04211D3B0EB040861EBD8
:104C70000509B9F1000F08BFB8F1E04F09D2001BD8
:104C80009A68336810441B69BDE8704318470020D8
:104C9000F6E74FF0E040F3E7036870B5DB680446E1
:104CA000984763685B68A3B12046FFF7BBFF656860
:104CB0006E68D5E90201D6E90023994208BF904207
:104CC00007D3F3686B602B68002BEAD0B068984775
:104CD000E7E72046BDE87040FFF7B7BF10B50023F7
:104CE000036043600A782F2A04460DD14A785AB1EE
:104CF000481C2060194623681A782F2A06D10133F0
:104D0000236000F0FDF96060204610BD002AF8D055
:104D1000013301312360EEE700687047406808B551
:104D200020B100F09DF9431E5842584108BD10B50E
:104D30000446FFF7F3FF10B1606800B1043810BDFE
:104D4000406808B520B100F08BF9B0FA80F0400956
:104D500008BD10B50446FFF7F3FF10B1606800B15D
:104D6000043810BD4068003018BF012070470000B3
:104D700070B504460D46164600F0D8F833462A466C
:104D800021460348FDF7C8F8BDE87040FDF784B838
:104D9000B8E800080020704700207047036801222F
:104DA0001B6900211847036800221B691146184738
:104DB00070477047F8B50368DB6C0E4604468F18E1
:104DC00098473546BD4207D0236815F8011B5B6C38
:104DD000204698470130F5D1236820461B6D98473F
:104DE000A81BF8BDF8B50368DB6C0E4604468F18A7
:104DF00098473546BD4208D0236820469B6C9847AB
:104E0000431C02D005F8010BF4E7236820461B6D14
:104E10009847A81BF8BD00207047704700207047D6
:104E20000020704710B5054B03604C33044640F832
:104E3000043F00F035F9204610BD00BFF4E800083B
:104E4000A0F10400EEE700BF10B50446FFF7EAFF4B
:104E50002046FDF7CDF9204610BDA0F10400F3E790
:104E60000F4B10B50022044640F8043B00F0FAF85E
:104E70000C4B23605C336360002363610A49204666
:104E800000F0ECF8606118B1FDF781F9204610BD23
:104E900000F058F90168054800F092F8F6E700BF05
:104EA00058EA000874E9000848E900084BE90008DE
:104EB00010B5074B03F108026433044602604360F7
:104EC000406900F0ABF92046FFF7ACFF204610BD6B
:104ED0006CE9000838B503680446DB6C0D4698475A
:104EE000606900F069FA6169284600F0DFFB236819
:104EF00005461B6D20469847284638BD38B50368DF
:104F00000446DB6C9847606900F056FA6069FDF76B
:104F10005FF9236805461B6D20469847284638BD33
:104F2000EFF31080C04300F00100704738B5FFF781
:104F3000F7FF054672B60E4C236823B980F00103D3
:104F40000C4ADBB213702368013304D143220A49AF
:104F50000A48FFF70DFF23682BB125B14722064908
:104F60000748FFF705FF23680133236038BD00BF02
:104F70009C12002098120020D8E9000816EA0008C8
:104F80003CEA000810B50A4C236883B1FFF7C8FF5C
:104F900020B1582207490848FFF7EAFE2368013B81
:104FA000236023681BB9054B1B7803B962B610BD9B
:104FB0009C120020D8E900083CEA00089812002062
:104FC0000FB413B5084B1A784AB9012405A90498FF
:104FD0001C700191FCF776FF2046FDF7D3F802B074
:104FE000BDE8104004B07047A012002038B5044658
:104FF000FFF7D0FA0546FFF7CDFA401BA042FAD3DF
:1050000038BD000007EE100ADFED047A67EE277A5C
:10501000FDEEE77A17EE900AFFF7E8BF0024744927
:105020004FF47A735843FFF7E1BF036870B51B690B
:105030000122002104469847051E0DDB2368022249
:105040001B690021204698472368064629461B69AC
:105050000022204698473546284670BDFDF79AB88D
:10506000007B704738B504460A4B03600023436059
:105070000D46A16002730848FDF7BCF845B1074B27
:105080001A6862601C600448FDF7B4F8204638BD19
:105090006560F8E7A4EA0008A8120020A412002026
:1050A00010B50F4B036004460E48FDF7A3F8A36844
:1050B0002BB10D4A13689C420CD1636813600948F8
:1050C000FDF798F8237B13B9201FFDF7A9F82046B8
:1050D00010BD13465A689442FBD162685A60EEE7ED
:1050E000A4EA0008A8120020A412002010B504466B
:1050F000FFF7D6FF2046FDF77BF8204610BD0000E5
:1051000070B506460C480D46FDF774F80B4B1C684D
:105110005CB1A06870B12A46314601F01FFD48B964
:10512000A06801F0ADFC854204D10348FDF762F8A8
:10513000204670BD6468EBE7A8120020A41200208E
:10514000FDF756B8014B1868704700BFD801002022
:1051500070B500294BD00C46054610B1836B002B6F
:1051600048D0636ED80734D5B4F90C30002B3ED04C
:105170002146284600F05AF8E36A064633B1E16951
:10518000284698470028B8BF4FF0FF36A3891A0673
:105190003BD4216B41B104F14003994202D028462F
:1051A00007F044FE00232363616C21B1284607F019
:1051B0003DFE0023636400F007FA636E0022DB0704
:1051C000A28127D5A06D00F027FE00F003FA30463B
:1051D00070BDA3899905CBD4A06D00F01FFEB4F972
:1051E0000C30002BC4D1666E16F0010608D00026E4
:1051F000304670BD00F06CF9636ED807B4D4E8E7B0
:10520000A06D00F00DFE304670BD2169284607F004
:105210000DFEBEE7A06D00F003FED3E7024B014692
:105220001868FFF795BF00BFD8010020B1F90C2026
:105230002DE9F0410D461107804647D46B6842F4D2
:105240000062002BAA815DDDAC6A002C57D00023E0
:10525000D8F80060C8F8003093B212F4805255D1EB
:105260000123E9694046A047431C66D0AB89AC6A7C
:105270005F0705D56A682B6B801A0BB1EB6BC01A00
:10528000E969024600234046A047411C40D1D8F8B6
:105290000030002B3CD01D2B01D0162B55D1AB89F3
:1052A0002A692A6023F400630022AB816A60296BBB
:1052B000C8F8006019B305F14003994202D0404696
:1052C00007F0B4FD00202863BDE8F0812F69B7B175
:1052D00093B22E682F609A070CBF6B690023F61BF0
:1052E000AB600AE06C6AE96933463A464046A0473B
:1052F000041EA6EB0406274417DD002EF2DC002076
:10530000BDE8F081EB6B002B9EDCF8E7286DAFE782
:10531000B5F90C302A692A6023F400630022AB81BE
:10532000DB046A60C3D52865C1E7AB8943F040035D
:10533000AB814FF0FF30BDE8F081D8F80030002B92
:1053400094D01D2B06D0162B04D0AB8943F040031C
:10535000AB81D5E7C8F80060D1E700BF38B50C468F
:10536000054608B1836BA3B1B4F90C00B8B1636E04
:10537000DB0701D4810515D528462146FFF756FFE6
:10538000636EDA07054602D4A3899B050ED528462D
:1053900038BD00F09DF8B4F90C000028E7D10546AF
:1053A000284638BDA06D00F039FDE5E7A06D00F09E
:1053B00037FD284638BD00BF014618B1044B1868B8
:1053C000FFF7CCBF034B0449186800F0DBBC00BFFB
:1053D000D8010020ACEA00085D53000838B5184B2E
:1053E0001D6804460DB1AB6BB3B1636ED80702D430
:1053F000A38999051FD56368013B002B63600FDB10
:1054000023685A1C22601D78636EDA0702D4A389D0
:105410009B050BD5284638BD284600F059F8E4E72F
:105420002846214601F080F80546EDE7A06D00F022
:10543000F7FC284638BDA06D00F0F0FCDBE700BFAC
:10544000D801002010B500230446C0E90033C0E9AC
:1054500004338181C28183604366836119460822D7
:105460005C3000F0C3FE07480749084A084BE36276
:10547000C4E90740C4E9091204F15800BDE810402E
:1054800000F0C8BC0D6700083167000871670008AC
:1054900091670008014900F075BC00BF5151000838
:1054A00070B54A1E682505FB02F50E4605F174012C
:1054B00007F0B8FC044640B100210C30666005F1ED
:1054C00068022160A06000F091FE204670BD00BF20
:1054D00010B50446114800F0A1FCA26BC2B904F556
:1054E0003B730F48C4F8E0220321C4E9B913E06319
:1054F00004216068FFF7A6FFA06801220921FFF7D9
:10550000A1FFE06802221221FFF79CFF0123A363A1
:10551000BDE81040014800F083BC00BFFC1500202E
:1055200095540008F8B50746244800F077FC244B52
:105530001E68B36B7BB306F53876D6E90134013BC0
:1055400004D524E05A1C04F1680420D0B4F90C50AE
:10555000013B002DF6D11B4BE36004F1580065665A
:1055600000F058FC154800F05BFCC4E90155C4E9A3
:1055700004552560A5610822294604F15C0000F06D
:1055800035FEC4E90C55C4E911552046F8BD346810
:105590002CB12646D1E73046FFF79AFFCBE704212E
:1055A0003846FFF77DFF044630600028F1D10348FC
:1055B00000F036FC0C233B60E7E700BF101600202C
:1055C000ACEA00080100FFFF014800F027BC00BF63
:1055D00010160020014800F023BC00BF1016002068
:1055E000F0B583B00D46114601AA074604F05AFAF9
:1055F00050B306463846FFF795FF044620B32946C8
:10560000019A4FF4DB73384600F040FE051E31DB93
:10561000636EDB0702D4A389980523D51B4B1C4975
:105620001C4AE581C4E90743C4E909121A4BA68163
:10563000F105E3620CD4636EDA0702D4A3899B05FB
:1056400014D5204603B0F0BD0024204603B0F0BDC1
:10565000022300223846214600F05AF8636EDA072A
:10566000EFD4EBE7A06D00F0D9FBD7E7A06D00F019
:10567000D7FBE6E70025FFF7A7FFA06DA58100F0A7
:10568000CBFB2C46FFF7A6FFDBE700BF0D6700084A
:10569000316700087167000891670008024B0A46ED
:1056A00001461868FFF79CBFD801002030B5174BA2
:1056B0001D680C4683B001460DB1AB6B9BB1636EA8
:1056C000DB0702D4A389980519D52846224600F0A5
:1056D00007FE636EDA07054602D4A3899B0508D549
:1056E000284603B030BD01902846FFF7F1FE01992E
:1056F000E5E7A06D00F094FB284603B030BDA06D37
:10570000019100F08BFB0199DFE700BFD801002079
:1057100000F000B82DE9F04F0C4697B090461F46B8
:10572000064608B1836B3BB3636E13F0010FA38988
:1057300002D19D0540F1178103F48473B3F5847F92
:1057400000F0FE80D4F82890B9F1000F00F06A81D3
:10575000012F5BD037F0020511D0636E1622D907F6
:10576000326003D4A3899A0540F118814FF0FF35C8
:10577000284617B0BDE8F08FFFF7AAFED4E72369EB
:10578000AB46002B66D0B4F90C3040F61A02134237
:1057900099B207D14A057BD4A64A91455FD043F41C
:1057A0000063A38121463046FFF7D8FD002840F072
:1057B0003481E1693B4642463046C847013000F03B
:1057C0002C81216B41B104F14003994202D0304653
:1057D00007F02CFB00232363A3892269226023F4B2
:1057E00002630021A3816160082204F15C0000F0E3
:1057F000FDFC656E15F0010503D1A3899B0540F101
:10580000D9800025284617B0BDE8F08F21463046E4
:10581000FFF7A4FDA38913F4805240F09680E1695C
:105820003B463046C847411C054600F0BB80A38973
:105830005F0740F18E806368226BED1A002A00F04A
:10584000AB80E06B23692D1AA8444FF0010B0027B1
:10585000002B98D12146304600F012FB93E7B4F9B3
:105860000E1000299BDB6A46304600F0E5F8002860
:1058700040F0BA80019B03F47043B3F5004F40F051
:10588000B380A3894FF4806243F48063A381E26410
:10589000002F6DD1C246BBF1000F78D1A389DB0484
:1058A00040F19980206D6368216BC51A1A46002962
:1058B00000F08880E06B2D1AA26BD4F810C01D4454
:1058C000A2EB0C02AD1A0244AA4503DBAB18534508
:1058D00000F28D80E26CE169524202EA0A052A4632
:1058E00000233046C84701303FF45CAF2369216B89
:1058F00023600023636041B104F14003994202D068
:10590000304607F093FA00232363A389BAEB050A14
:1059100023F02003A38110D02146304600F07AFD09
:1059200000287FF43FAF63685345FFF43BAF226824
:10593000A3EB0A035244C4E900230822002154E7E0
:1059400021463046FFF70AFDFCE65F07256D3FF56F
:1059500072AF180720D522682369002A3FF474AF7C
:10596000D21A154470E7A06D00F058FAA389E3E657
:10597000B4F90E106A46304600F05EF800287FF455
:1059800011AF049B08EB030ABBF1000F86D0216B1B
:10599000B9B16368E06B8FE7236955E7A06D00F04C
:1059A0003FFAE3E6636EDA073FF5E0AEA3899B05B5
:1059B0003FF5DCAEA06D00F033FA284617B0BDE825
:1059C000F08F62682068D4F810C0A0EB0C002D1A8C
:1059D0000244002178E7E1695A4601233046C8476E
:1059E000451C7FF460AFDDE6B4F90C30D7E6AAEBD6
:1059F00005050CEB0503521BC4E9003241B104F16B
:105A00004003994202D0304607F010FA0023236386
:105A1000A38923F02003A3818FE7636ED9077FF565
:105A2000A1AEA3E6636E1D22D80732607FF59AAE61
:105A30009CE600BF7167000838B50C46084D034668
:105A40001146204600221C462A60FCF751FB431CED
:105A500000D038BD2B68002BFBD0236038BD00BFC1
:105A6000141600209368002B00F08A802DE9F04F77
:105A70009046B1F90C200C46110783B0814693B2D1
:105A800025D522691AB313F00207D8F800502DD09B
:105A90000026DFF8ACB23746AA465F453B463246A1
:105AA00028BF5B464846002F4FD0E169656AA8478A
:105AB00000285BDDD8F808301B1A06443F1AC8F8E6
:105AC0000830002BE9D1002003B0BDE8F08F21465B
:105AD000484602F067FF002840F02F81B4F90C20FF
